{
  "contractName": "Migrations",
  "abi": [
    {
      "inputs": [],
      "name": "owner",
      "outputs": [
        {
          "internalType": "address",
          "name": "",
          "type": "address"
        }
      ],
      "stateMutability": "view",
      "type": "function",
      "constant": true
    },
    {
      "inputs": [
        {
          "internalType": "uint256",
          "name": "completed",
          "type": "uint256"
        }
      ],
      "name": "setCompleted",
      "outputs": [],
      "stateMutability": "nonpayable",
      "type": "function"
    },
    {
      "inputs": [
        {
          "internalType": "address",
          "name": "new_address",
          "type": "address"
        }
      ],
      "name": "upgrade",
      "outputs": [],
      "stateMutability": "nonpayable",
      "type": "function"
    }
  ],
  "bytecode": "0x6080604052336000806101000a81548173ffffffffffffffffffffffffffffffffffffffff021916908373ffffffffffffffffffffffffffffffffffffffff16021790555034801561005057600080fd5b5061047c806100606000396000f3fe608060405234801561001057600080fd5b50600436106100415760003560e01c80630900f010146100465780638da5cb5b14610062578063fdacd57614610080575b600080fd5b610060600480360381019061005b9190610286565b61009c565b005b61006a6101a0565b6040516100779190610321565b60405180910390f35b61009a600480360381019061009591906102b3565b6101c4565b005b3373ffffffffffffffffffffffffffffffffffffffff1660008054906101000a900473ffffffffffffffffffffffffffffffffffffffff1673ffffffffffffffffffffffffffffffffffffffff161461012a576040517f08c379a00000000000000000000000000000000000000000000000000000000081526004016101219061033c565b60405180910390fd5b60008190508073ffffffffffffffffffffffffffffffffffffffff1663fdacd5766001546040518263ffffffff1660e01b815260040161016a919061035c565b600060405180830381600087803b15801561018457600080fd5b505af1158015610198573d6000803e3d6000fd5b505050505050565b60008054906101000a900473ffffffffffffffffffffffffffffffffffffffff1681565b3373ffffffffffffffffffffffffffffffffffffffff1660008054906101000a900473ffffffffffffffffffffffffffffffffffffffff1673ffffffffffffffffffffffffffffffffffffffff1614610252576040517f08c379a00000000000000000000000000000000000000000000000000000000081526004016102499061033c565b60405180910390fd5b8060018190555050565b60008135905061026b81610418565b92915050565b6000813590506102808161042f565b92915050565b60006020828403121561029c5761029b6103c4565b5b60006102aa8482850161025c565b91505092915050565b6000602082840312156102c9576102c86103c4565b5b60006102d784828501610271565b91505092915050565b6102e981610388565b82525050565b60006102fc602883610377565b9150610307826103c9565b604082019050919050565b61031b816103ba565b82525050565b600060208201905061033660008301846102e0565b92915050565b60006020820190508181036000830152610355816102ef565b9050919050565b60006020820190506103716000830184610312565b92915050565b600082825260208201905092915050565b60006103938261039a565b9050919050565b600073ffffffffffffffffffffffffffffffffffffffff82169050919050565b6000819050919050565b600080fd5b7f204170656e6173206f20646f6e6f20646f20636f6e747261746f20706f64652060008201527f6578656375746172000000000000000000000000000000000000000000000000602082015250565b61042181610388565b811461042c57600080fd5b50565b610438816103ba565b811461044357600080fd5b5056fea2646970667358221220b927946966cb764378cce32db2bb8f23f5f244dda59f117fa590658447f1859b64736f6c63430008070033",
  "immutableReferences": {},
  "source": "// SPDX-License-Identifier: MIT\r\npragma solidity >=0.4.22 <0.9.0;\r\n\r\ncontract Migrations {\r\n    address public owner = msg.sender;\r\n\r\n    uint256 last_completed_migration;\r\n\r\n    modifier restricted() {\r\n        require(\r\n            owner == msg.sender,\r\n            \" Apenas o dono do contrato pode executar\"\r\n        );\r\n        _;\r\n    }\r\n\r\n    function setCompleted(uint256 completed) public restricted {\r\n        last_completed_migration = completed;\r\n    }\r\n\r\n    function upgrade(address new_address) public restricted {\r\n        Migrations upgraded = Migrations(new_address);\r\n        upgraded.setCompleted(last_completed_migration);\r\n    }\r\n\r\n\r\n}\r\n",
  "sourcePath": "C:\\projetos\\Aplicacoes_blockchain\\celo\\hackathon_celo\\src\\contracts\\Migrations.sol",
  "compiler": {
    "name": "solc",
    "version": "0.8.7+commit.e28d00a7.Emscripten.clang"
  },
  "schemaVersion": "3.4.10",
  "updatedAt": "2022-12-09T19:05:48.538Z",
  "networkType": "ethereum",
  "devdoc": {
    "kind": "dev",
    "methods": {},
    "version": 1
  },
  "userdoc": {
    "kind": "user",
    "methods": {},
    "version": 1
  }
}